S00E0000417373692E392E737265631F
S11300000C9434000C9451000C9451000C94510045
S11300100C9451000C9451000C9451000C94510018
S11300200C9451000C9451000C9451000C94510008
S11300300C9451000C9451000C9451000C945100F8
S11300400C9451000C9451000C9451000C945100E8
S11300500C9451000C9451000C9451000C945100D8
S11300600C9451000C94510011241FBECFEFD8E022
S1130070DEBFCDBF11E0A0E0B1E0E0E9FAE002C0EC
S113008005900D92AA31B107D9F721E0AAE1B1E0B8
S113009001C01D92A532B207E1F70E9467010C94DA
S11300A046050C94000080E90E9422028CEA0E941A
S11300B0560280E20E94560280E90E944A028EEEB5
S11300C00E9456020E944D020895CF93C82F8EE4D9
S11300D00E94220280911A018C2B0E9456020E94D7
S11300E04D02CF910895CF93C82F84600E9465007C
S11300F085E08A95F1F700008C2F8B7F0E946500C4
S113010087EC90E00197F1F700C00000CF910895CB
S1130110CF93C82FCD7F8C2F0E9465008C2F0E9417
S11301207300CF910895CF93DF93D82FC62FC46067
S1130130807F8C2B0E9488008D2F8295807F8C2B52
S11301400E948800DF91CF91089561E00E9493009E
S113015008950E94A50080E090E0089560E081E0A9
S11301600E9493002FEF86E791E021508040904059
S1130170E1F700C000000895CF93DF93CDB7DEB759
S113018028970FB6F894DEBF0FBECDBF98E0EEE01F
S1130190F1E0DE01119601900D929A95E1F79091AC
S11301A01B01691710F06FEF690FE62FF0E0EE0FF7
S11301B0FF1FEC0FFD1F9181890F60E080680E9492
S11301C0930028960FB6F894DEBF0FBECDBFDF9123
S11301D0CF91089580911D018B7F80931D0160E074
S11301E088600E949300089580911D01982F946067
S11301F090931D0160E08C600E949300089580E05C
S113020091E0909322018093210180911A018860EA
S113021080931A0184E080931B012FEF80E792E022
S1130220215080409040E1F700C000008EE40E941D
S1130230220284E00E9456028FE891E00197F1F7D0
S113024000C0000080E30E9488008FE496E40197D8
S1130250F1F700C0000080E30E94880087E592E087
S11302600197F1F700C0000080E30E94880087E551
S113027092E00197F1F700C0000080E20E9488003C
S113028087E592E00197F1F700C0000060E088E2A2
S11302900E94930010921D010E94EA000E94F40043
S11302A082E080931E0160E086E00E9493008091CA
S11302B01D0160E088600E94930088E080931C0127
S11302C060E088E10E9493000E94AE0008950E94BD
S11302D0F5010E94FF000E9453008FEF8AB980EF5E
S11302E087B98FE088B91BB8C0E0D0E06894FF24D8
S11302F0F7F899249394A12C6894BB24B1F8C12CE9
S11303006894DD24D2F8E12C0F2EF3E07F2EF02D3B
S1130310812C06E111E086B18E3319F4FBB8C92DA6
S1130320DA2D86B18D3319F4FBB8CB2DDC2D86B1D3
S11303308B3339F4FBB886B1873331F0C72DD82D10
S113034021C086B1873321F4FBB8CD2DDE2D1AC030
S1130350C130D10551F49FEF29E688E19150204046
S11303608040E1F700C000001AC0C230D10551F44A
S11303709FEF23ED80E3915020408040E1F700C0DF
S113038000001AC0C330D10551F49FEF2DE389E476
S1130390915020408040E1F700C0000010C0C430FC
S11303A0D10551F49FEF27EA81E691502040804027
S11303B0E1F700C0000003C0209709F41BB88BB11B
S11303C086958BB98BB1883009F4FBB860E080E086
S11303D00E94BC00DF93CF931F930F930E94680287
S11303E00F900F900F900F9096CF1092B90088E461
S11303F08093B800089594EA9093BC00ECEBF0E08D
S113040090819923ECF79091B900987F983011F07E
S11304109031A1F48093BB0084E88093BC00ECEBA2
S1130420F0E080818823ECF79091B900987F9831AF
S113043039F081E0903429F480E0089581E0089552
S113044080E00895CF93DF93ECEBF0E024EAA9EB8E
S1130450B0E0CBEBD0E034E844E9208390819923E9
S1130460ECF79C91987F983011F09031B1F7888324
S1130470308390819923ECF79C91987F903211F00E
S1130480983529F44083908194FDFDCFE6CFDF9128
S1130490CF9108950E94FB01089584E98093BC00E4
S11304A0ECEBF0E0808184FDFDCF08958093BB00E8
S11304B084E88093BC00ECEBF0E080818823ECF7C7
S11304C09091B900987F81E0983209F480E0089512
S11304D0A0E0B0E0EEE6F2E00C941F05AE014B5F45
S11304E05F4FFA0161917191AF0180912101909167
S11304F022010E947E02E2E00C943B05ABE0B0E0F6
S1130500E4E8F2E00C940F056C017B018A01FC0124
S113051017821682838181FFCCC1CE0101963C01F2
S1130520F6019381F70193FD859193FF81917F01FA
S1130530882309F4BAC1853239F493FD859193FF78
S113054081917F01853229F4B60190E00E947504FF
S1130550E7CF912C212C312CFFE1F315D8F08B320D
S113056079F038F4803279F08332A1F4232D2061BC
S11305701DC08D3261F0803369F4232D216016C0D3
S1130580832D8260382EE32DE4603E2E2AC0F32DA5
S1130590F8601DC037FC2DC020ED280F2A3040F034
S11305A08E32B9F436FC81C1232D2064322E19C059
S11305B036FE06C08AE0989E200D1124922E11C0AA
S11305C0EAE02E9E200D1124222EF32DF0623F2E00
S11305D008C08C3621F4832D8068382E02C08836FA
S11305E041F4F70193FD859193FF81917F0181117E
S11305F0B3CF982F9F7D9554933028F40C5F1F4FF1
S11306009FE399830DC0833631F0833771F08335CE
S113061009F059C021C0F801808189830E5F1F4F02
S113062088248394912C530113C02801F2E04F0EC7
S1130630511CF801A080B18036FE03C0692D70E022
S113064002C06FEF7FEFC5010E946A044C01820172
S1130650F32DFF773F2E16C0280122E0420E511CD5
S1130660F801A080B18036FE03C0692D70E002C09D
S11306706FEF7FEFC5010E945F044C01F32DF0681A
S11306803F2E820133FC1BC0822D90E08816990610
S1130690B0F4B60180E290E00E9475042A94F4CF8D
S11306A0F50137FC859137FE81915F01B60190E039
S11306B00E94750421102A9421E0821A9108811461
S11306C0910471F7E8C0843611F0893641F5F801D8
S11306D037FE07C060817181828193810C5F1F4F57
S11306E008C060817181072E000C880B990B0E5F86
S11306F01F4FF32DFF763F2E97FF09C090958095ED
S1130700709561957F4F8F4F9F4FF0683F2E2AE081
S113071030E0A3010E94B104882E861845C08537B5
S113072031F4232D2F7EB22E2AE030E025C0932D04
S1130730997FB92E8F36C1F018F4883579F0B5C099
S1130740803719F0883721F0B0C0E92FE061BE2E60
S1130750B4FE0DC0FB2DF460BF2E09C034FE0AC0E8
S1130760292F2660B22E06C028E030E005C020E123
S113077030E002C020E132E0F801B7FE07C060813A
S11307807181828193810C5F1F4F06C060817181EA
S113079080E090E00E5F1F4FA3010E94B104882EF9
S11307A08618FB2DFF773F2E36FE0DC0232D2E7F9E
S11307B0A22E891458F434FE0BC032FC09C0832DD8
S11307C08E7EA82E05C0B82CA32C03C0B82C01C063
S11307D0B92CA4FE0FC0FE01E80DF11D8081803309
S11307E021F49A2D997EA92E09C0A2FE06C0B394C5
S11307F0B39404C08A2D867809F0B394A3FC11C085
S1130800A0FE06C0B21488F4280C922C9B180EC0CB
S1130810B21460F4B60180E290E00E947504B394CF
S1130820F7CFB21418F42B1802C0982C212CA4FE74
S113083010C0B60180E390E00E947504A2FE17C0C8
S1130840A1FC03C088E790E002C088E590E0B6010F
S11308500CC08A2D867859F0A1FE02C08BE201C03B
S113086080E2A7FC8DE2B60190E00E947504891431
S113087038F4B60180E390E00E9475049A94F7CFAF
S11308808A94F301E80DF11D8081B60190E00E9485
S113089075048110F5CF222009F442CEB60180E21E
S11308A090E00E9475042A94F6CFF6018681978120
S11308B002C08FEF9FEF2B96E2E10C942B05FC0115
S11308C00590615070400110D8F7809590958E0F77
S11308D09F1F0895FC016150704001900110D8F7EA
S11308E0809590958E0F9F1F08950F931F93CF931C
S11308F0DF93FB01238121FD03C08FEF9FEF2CC009
S113090022FF16C04681578124813581421753073F
S113091044F4A081B1819D012F5F3F4F3183208337
S11309208C93268137812F5F3F4F3783268314C0F2
S11309308B01EC01FB010084F185E02D0995892BE5
S1130940E1F6D80116968D919C911797019617960A
S11309509C938E931697CE01DF91CF911F910F91A7
S11309600895FA01AA27283051F1203181F1E89441
S11309706F936E7F6E5F7F4F8F4F9F4FAF4FB1E08E
S11309803ED0B4E03CD0670F781F891F9A1FA11D89
S1130990680F791F8A1F911DA11D6A0F711D811D8A
S11309A0911DA11D20D009F468943F912AE0269F4F
S11309B011243019305D3193DEF6CF010895462FAE
S11309C04770405D4193B3E00FD0C9F7F6CF462F8F
S11309D04F70405D4A3318F0495D31FD40524193F8
S11309E002D0A9F7EACFB4E0A695979587957795B5
S11309F06795BA95C9F700976105710508959B013C
S1130A00AC010A2E06945795479537952795BA95C4
S1130A10C9F7620F731F841F951FA01D08952F929D
S1130A203F924F925F926F927F928F929F92AF927A
S1130A30BF92CF92DF92EF92FF920F931F93CF93C7
S1130A40DF93CDB7DEB7CA1BDB0B0FB6F894DEBF5E
S1130A500FBECDBF09942A88398848885F846E8484
S1130A607D848C849B84AA84B984C884DF80EE80CE
S1130A70FD800C811B81AA81B981CE0FD11D0FB6D7
S1130A80F894DEBF0FBECDBFED010895F894FFCFFB
S1130A900000000200000000A900000000000000A7
S10D0AA04000140054002564000017
S9030000FC
