S0120000496E74657272757074732E73726563D2
S11300000C9434000C9451000C9451000C94510045
S11300100C9451000C9451000C9451000C94510018
S11300200C9451000C9451000C9451000C94510008
S11300300C9451000C9451000C9477000C945100D2
S11300400C9451000C9451000C9451000C945100E8
S11300500C9451000C9451000C9451000C945100D8
S11300600C9451000C94510011241FBECFEFD8E022
S1130070DEBFCDBF11E0A0E0B1E0E0E3F1E002C0FB
S113008005900D92A030B107D9F721E0A0E0B1E0CE
S113009001C01D92A230B207E1F70E9462000C94E5
S11300A096000C94000084B5826084BD89EF87BDFE
S11300B0EEE6F0E0808182608083789485B5836089
S11300C085BD08958FEF8AB91BB880EF87B98FE398
S11300D088B90E94530090EF28EE33E086B18E3346
S11300E0E9F79BB93093010120930001F7CF1F92E8
S11300F00F920FB60F9211248F939F93809100015A
S113010090910101892B11F41BB809C08091000161
S113011090910101019790930101809300019F91B7
S11301208F910F900FBE0F901F901895F894FFCFEA
S9030000FC
