:100000000C94B5000C94D2000C94D2000C94D20045
:100010000C94D2000C94D2000C94D2000C94D20018
:100020000C94D2000C94D2000C94D2000C94D20008
:100030000C94D2000C94D2000C94D2000C94D200F8
:100040000C94D2000C94D2000C94D2000C94D200E8
:100050000C94D2000C94D2000C94D2000C94D200D8
:100060000C94D2000C94D2006E616E00696E660032
:1000700000407A10F35A00A0724E18090010A5D45F
:10008000E80000E87648170000E40B54020000CABC
:100090009A3B000000E1F505000080969800000002
:1000A00040420F000000A086010000001027000061
:1000B0000000E803000000006400000000000A00E7
:1000C000000000000100000000002C76D888DC67EA
:1000D0004F0823DFC1DFAE59E1B1B796E5E3E45342
:1000E000C63AE651997696E8E6C28426EB898C9B5F
:1000F00062ED407C6FFCEFBC9C9F40F2BAA56FA5FF
:10010000F490055A2AF75C936B6CF9676DC11BFC80
:10011000E0E40D47FEF520E6B500D0ED902E03009B
:10012000943577050080841E080000204E0A0000E8
:1001300000C80C333333330F986E12831141EF8DA7
:100140002114893BE65516CFFEE6DB18D1844B38E7
:100150001BF77C1D901DA4BBE424203284725E2218
:100160008100C9F124ECA1E53D2711241FBECFEF8A
:10017000D8E0DEBFCDBF11E0A0E0B1E0E8E5F5E1F9
:1001800002C005900D92A638B107D9F721E0A6E884
:10019000B1E001C01D92A039B207E1F70E94390118
:1001A0000C94AA0A0C94000080E90E941D028CEABB
:1001B0000E94510280E20E94510280E90E944502A1
:1001C0008EEE0E9451020E9448020895CF93DF9361
:1001D00080E90E941D028AEA0E94510281E90E9480
:1001E00045020E946302C82F0E946E02D82F0E940F
:1001F0004802CC23B4F0DD233CF06C2F70E080E0AB
:1002000090E00E941F0332C06C2F70E080E090E00D
:100210000E94210320E030E040E05FE30E94AE0254
:1002200025C0DD237CF06C2F619570E080E090E0CC
:100230000E9421039B01AC0160E070E0CB010E94B1
:10024000AD0214C06C2F609570E080E090E00E94D9
:10025000210320E030E040E05FE30E94AE029B011A
:10026000AC0160E070E0CB010E94AD02DF91CF9164
:1002700008958FEF8AB980EF87B98FE388B91BB8EB
:100280000E94F0010E94D4000E9491020E94A202EA
:1002900081E090E00E948A072C01FC01118210820B
:1002A00081E090E00E948A071C0181E090E0F1016A
:1002B00091838083C2010E94790AD62EC72EB82E60
:1002C000A92EC1010E94790A962E872E782E692EBA
:1002D0000F2EF6E3EF2EF1E0FF2EF02D0E94E60048
:1002E000162FD72FC82F092F762F272F3D2F4C2FB2
:1002F000502F6D2D7C2D8B2D9A2D0E941A03882353
:1003000084F4412F5D2F6C2F702FC2010E947F0A51
:1003100082E291E00E94EB09D12ECD2EBC2EA02EC0
:100320001BC0212F3D2F4C2F502F692D782D872D4D
:10033000962D0E94D10318167CF4412F5D2F6C2F4F
:10034000702FC1010E947F0A8CE291E00E94EB09AC
:10035000912E8D2E7C2E602E6F927F928F929F9287
:10036000AF92BF92CF92DF920F93CF93DF931F9301
:10037000FF92EF920E94D509FFEF23ED30E3F15099
:1003800020403040E1F700C0000086B1EDB7FEB775
:100390003E960FB6F894FEBF0FBEEDBF873309F04F
:1003A0009DCF8EE591E00E94EB09412F5D2F6C2FD0
:1003B000702FC2010E947F0A412F5D2F6C2F702F7A
:1003C000C1010E947F0A84E791E00E94EB09912E0F
:1003D0008D2E7C2E602ED12ECD2EBC2EA02E7ECF2B
:1003E0001092B90088E48093B800089594EA90933D
:1003F000BC00ECEBF0E090819923ECF79091B90010
:10040000987F983011F09031A1F48093BB0084E87C
:100410008093BC00ECEBF0E080818823ECF79091B6
:10042000B900987F983139F081E0903429F480E068
:10043000089581E0089580E00895CF93DF93ECEB79
:10044000F0E024EAA9EBB0E0CBEBD0E034E844E9FB
:10045000208390819923ECF79C91987F983011F03C
:100460009031B1F78883308390819923ECF79C9188
:10047000987F903211F0983529F44083908194FD53
:10048000FDCFE6CFDF91CF9108950E94F601089548
:1004900084E98093BC00ECEBF0E0808184FDFDCF2B
:1004A00008958093BB0084E88093BC00ECEBF0E0FF
:1004B00080818823ECF79091B900987F81E0983291
:1004C00009F480E0089584EC8093BC00ECEBF0E04C
:1004D00080818823ECF78091BB00089584E88093A5
:1004E000BC00ECEBF0E080818823ECF78091BB004E
:1004F0000895CF93C82F8A3019F48DE00E947902B5
:10050000E0ECF0E0808185FFFDCFC093C600CF9185
:100510000895E0ECF0E080818823ECF78091C6003C
:1005200008951092C50087E68093C400E0ECF0E0E7
:1005300080818D7F808386E08093C20088E18093F4
:10054000C1000895EAE8F1E084E191E093838283B9
:1005500086E091E09183808308955058BB27AA27B5
:100560000E94C5020C9497030E94890338F00E94F0
:10057000900320F039F49F3F19F426F40C9486037D
:100580000EF4E095E7FB0C948003E92F0E94A8038A
:1005900058F3BA17620773078407950720F079F4B8
:1005A000A6F50C94CA030EF4E0950B2EBA2FA02DDD
:1005B0000B01B90190010C01CA01A0011124FF2710
:1005C000591B99F0593F50F4503E68F11A16F0400B
:1005D000A22F232F342F4427585FF3CF469537950A
:1005E0002795A795F0405395C9F77EF41F16BA0BCF
:1005F000620B730B840BBAF09150A1F0FF0FBB1F7D
:10060000661F771F881FC2F70EC0BA0F621F731FC5
:10061000841F48F4879577956795B795F7959E3F22
:1006200008F0B0CF9395880F08F09927EE0F9795B3
:10063000879508950E945C0308F481E00895E8948A
:1006400009C097FB3EF490958095709561957F4F1A
:100650008F4F9F4F9923A9F0F92F96E9BB279395C8
:10066000F695879577956795B795F111F8CFFAF4D8
:10067000BB0F11F460FF1BC06F5F7F4F8F4F9F4F09
:1006800016C0882311F096E911C0772321F09EE867
:10069000872F762F05C0662371F096E8862F70E0CD
:1006A00060E02AF09A95660F771F881FDAF7880FA7
:1006B0009695879597F90895990F0008550FAA0BFD
:1006C000E0E8FEEF16161706E807F907C0F0121665
:1006D0001306E407F50798F0621B730B840B950B68
:1006E00039F40A2661F0232B242B252B21F40895BD
:1006F0000A2609F4A140A6958FEF811D811D08955A
:1007000097F99F6780E870E060E008959FEF80ECC4
:10071000089500240A941616170618060906089567
:1007200000240A9412161306140605060895092ECD
:100730000394000C11F4882352F0BB0F40F4BF2B3C
:1007400011F460FF04C06F5F7F4F8F4F9F4F08957C
:1007500057FD9058440F551F59F05F3F71F0479572
:10076000880F97FB991F61F09F3F79F08795089557
:10077000121613061406551FF2CF4695F1DF08C076
:10078000161617061806991FF1CF86957105610593
:1007900008940895E894BB2766277727CB0197F93B
:1007A00008950E945C0308F48FEF0895A0E1B0E083
:1007B000ECEDF3E00C9453077C011B016A01FC0192
:1007C00017821682838181FF44C39E012F5F3F4FB2
:1007D0003901F7019381F10193FD859193FF819197
:1007E0001F01882309F431C3853239F493FD8591C3
:1007F00093FF81911F01853239F4B70190E00E9487
:10080000990956016501E5CF10E0512C912CFFE1CB
:10081000F915D8F08B3279F038F4803279F08332E0
:10082000A1F4F92DF0612EC08D3261F0803369F4AE
:10083000292D21602DC0392D3260932E892D8460A1
:10084000982E2AC0E92DE86015C097FC2DC020ED38
:10085000280F2A3088F496FE06C03AE0139F200D38
:100860001124122F19C08AE0589E200D1124522EF7
:10087000E92DE0629E2E10C08E3231F496FCE5C266
:10088000F92DF0649F2E08C08C3621F4292D2068A4
:10089000922E02C0883641F4F10193FD859193FFB9
:1008A00081911F018111B3CF9BEB980F933020F4FE
:1008B000992D9061805E07C09BE9980F933008F0F6
:1008C00066C1992D9F7E96FF16E09F73992E8536FF
:1008D00019F49064992E08C0863621F4392F3068B7
:1008E000932E02C01111115097FE07C01C3350F413
:1008F00044244394410E27E00BC0183038F027E021
:1009000017E005C027E09CE3492E02C0212F412CAF
:10091000560184E0A80EB11CF601608171818281CC
:100920009381042DA3010E94AB086C01F981FC871F
:10093000F0FF02C0F3FF06C091FC06C092FE06C0A5
:1009400000E205C00DE203C00BE201C000E08C85AF
:100950008C7019F001115AC29BC297FE10C04C0C4A
:10096000FC85F4FF04C08A81813309F44A9414148D
:1009700074F528E0241578F588E0482E2CC096FC04
:100980002AC0812F90E08C159D059CF03CEFC3168A
:100990003FEFD30674F0892D8068982E0AC0E2E0FC
:1009A000F0E0EC0FFD1FE10FF11D8081803319F4A1
:1009B00011501111F4CF97FE0EC044244394410E00
:1009C000812F90E0C816D9062CF41C1904C04424C9
:1009D000439401C010E097FE06C01C141D0434F4BB
:1009E000C601019605C085E090E002C081E090E07C
:1009F00001110196112331F0212F30E02F5F3F4F7D
:100A0000820F931F252D30E08217930714F4581A94
:100A100001C0512C892D897049F4552039F0B70156
:100A200080E290E00E9499095A94F7CF002329F0C0
:100A3000B701802F90E00E94990993FC09C05520CE
:100A400039F0B70180E390E00E9499095A94F7CFFA
:100A500097FE4CC04601D7FE02C0812C912CC601E6
:100A600088199909F301E80FF91FFE87ED879601B0
:100A700024193109388B2F87012F10E0119501952A
:100A800011093FEF8316930629F4B7018EE290E037
:100A90000E949909C814D9044CF08F85988988154B
:100AA000990524F4ED85FE85818101C080E3F1E0A4
:100AB0008F1A91082D853E852F5F3F4F3E872D87EA
:100AC000801691062CF0B70190E00E949909D9CFC9
:100AD000C814D90441F49A81963320F4953319F45B
:100AE0003C8534FF81E3B70190E04EC08A818133B9
:100AF00019F09C859F7E9C87B70190E00E94990920
:100B0000111105C094FC18C085E690E017C0B7012C
:100B10008EE290E00E9499091E5F82E001E0080FDA
:100B2000F301E80FF11D8081B70190E00E9499095F
:100B3000802F0113F3CFE6CF85E490E0B7010E9448
:100B40009909D7FC06C0C114D10441F4EC85E4FF37
:100B500005C0D194C194D1088DE201C08BE2B701E8
:100B600090E00E94990980E32AE0C216D1042CF09B
:100B70008F5FFAE0CF1AD108F7CFB70190E00E945B
:100B80009909B701C601C0960E94990954C18336DC
:100B900031F0833779F0833509F056C020C0560113
:100BA00032E0A30EB11CF6018081898301E010E0E0
:100BB000630112C05601F2E0AF0EB11CF601C08015
:100BC000D18096FE03C0612F70E002C06FEF7FEF0F
:100BD000C6010E948E098C01F92DFF7714C05601C1
:100BE00022E0A20EB11CF601C080D18096FE03C0A7
:100BF000612F70E002C06FEF7FEFC6010E94830992
:100C00008C01F92DF0689F2EF3FD1AC0852D90E020
:100C100008171907A8F4B70180E290E00E9499092B
:100C20005A94F4CFF60197FC859197FE81916F015C
:100C3000B70190E00E94990951105A94015011098E
:100C40000115110579F7F7C0843611F0893661F581
:100C5000560197FE09C024E0A20EB11CF601608186
:100C60007181828193810AC0F2E0AF0EB11CF6015E
:100C700060817181072E000C880B990BF92DFF768E
:100C80009F2E97FF09C090958095709561957F4F35
:100C90008F4F9F4FF0689F2E2AE030E0A3010E9403
:100CA0001B0AC82EC6183FC0092D853721F40F7EB8
:100CB0002AE030E01DC0097F8F3691F018F48835A6
:100CC00059F0C3C0803719F0883711F0BEC00061F9
:100CD00004FF09C0046007C094FE08C0066006C097
:100CE00028E030E005C020E130E002C020E132E041
:100CF000560107FF09C084E0A80EB11CF60160810F
:100D000071818281938108C0F2E0AF0EB11CF601BF
:100D10006081718180E090E0A3010E941B0AC82ECF
:100D2000C6180F77902E96FE0BC0092D0E7FC116A8
:100D300050F494FE0AC092FC08C0092D0E7E05C036
:100D4000DC2C092D03C0DC2C01C0D12E04FF0DC00A
:100D5000FE01EC0DF11D8081803311F4097E09C084
:100D600002FF06C0D394D39404C0802F867809F084
:100D7000D39403FD11C000FF06C01C2DD51480F4D0
:100D8000150D1D190DC0D51458F4B70180E290E07F
:100D90000E949909D394F7CFD51410F45D1801C0BF
:100DA000512C04FF10C0B70180E390E00E94990924
:100DB00002FF17C001FD03C088E790E002C088E58C
:100DC00090E0B7010CC0802F867859F001FF02C077
:100DD0008BE201C080E207FD8DE2B70190E00E9446
:100DE0009909C11638F4B70180E390E00E9499098F
:100DF0001150F7CFCA94F301EC0DF11D8081B701BA
:100E000090E00E949909C110F5CF15C0F4E0F515E6
:100E100060F584E0581A93FE1FC0011127C02C858D
:100E200023FF2AC008E610E0392D3071932EF80117
:100E30008491811124C0552009F4E4CCB70180E2EB
:100E400090E00E9499095A94F6CFF7018681978124
:100E500026C08FEF9FEF23C0B70180E290E00E9491
:100E600099095A945110F8CFD8CF512CB701802F3F
:100E700090E00E949909D3CF0CE610E0D5CF9110F5
:100E80008052B70190E00E9499090F5F1F4FCFCFAA
:100E900023E0251510F483E0BDCF512CC0CF609620
:100EA000E2E10C946F072F923F924F925F926F9204
:100EB0007F928F929F92AF92BF92CF92DF92EF92EA
:100EC000FF920F931F93CF93DF93CDB7DEB7CA1B6B
:100ED000DB0B0FB6F894DEBF0FBECDBF09942A8896
:100EE000398848885F846E847D848C849B84AA843E
:100EF000B984C884DF80EE80FD800C811B81AA81CB
:100F0000B981CE0FD11D0FB6F894DEBF0FBECDBF95
:100F1000ED0108950F931F93CF93DF9382309105D6
:100F200010F482E090E0E0918801F091890120E0E6
:100F300030E0A0E0B0E0309719F1408151810281AA
:100F4000138148175907C8F08417950769F410975B
:100F500031F012960C93129713961C9327C00093AE
:100F600088011093890122C02115310519F042171B
:100F7000530718F49A01BD01EF01DF01F801DBCF3F
:100F800021153105F9F0281B390B2430310580F487
:100F90008A819B816115710521F0FB019383828316
:100FA00004C09093890180938801FE01329644C069
:100FB000FE01E20FF31F819391932250310939838F
:100FC00028833AC02091860130918701232B41F478
:100FD0002091020130910301309387012093860113
:100FE00020910001309101012115310541F42DB707
:100FF0003EB74091040150910501241B350BE0914F
:101000008601F0918701E217F307A0F42E1B3F0B36
:101010002817390778F0AC014E5F5F4F241735076A
:1010200048F04E0F5F1F50938701409386018193D4
:10103000919302C0E0E0F0E0CF01DF91CF911F91EA
:101040000F910895CF93DF93009709F481C0FC01BD
:10105000329713821282A0918801B0918901109772
:1010600081F420813181820F931F2091860130917C
:1010700087012817390751F5F0938701E09386011E
:1010800067C0ED0120E030E0CE17DF0740F44A8171
:101090005B819E0141155105F1F0EA01F5CFD38343
:1010A000C28340815181840F951FC817D90759F415
:1010B00088819981840F951F0296918380838A810C
:1010C0009B81938382832115310529F4F093890153
:1010D000E09388013DC0E901FB83EA83499159917E
:1010E000C40FD51FEC17FD0761F480819181840F37
:1010F000951F0296E90199838883828193819B835E
:101100008A83E0E0F0E012968D919C91139700970E
:1011100019F0FD01DC01F7CF8D919C9111979D0194
:101120002E5F3F4F820F931F2091860130918701E0
:101130002817390769F4309729F410928901109221
:10114000880102C013821282B0938701A0938601A6
:10115000DF91CF910895283008F027E03327DA0196
:10116000990F311D87FD916000966105710539F475
:1011700032602E5F3D9330E32A95E1F708959F3F5B
:1011800030F080387105610509F03C5F3C5F3D93AC
:10119000913008F08068911DDF93CF931F930F93D8
:1011A000FF92EF92192F987F9695E92F9695969535
:1011B000E90FFF27E653FF4F99273327EE24FF243B
:1011C000A701E70105900894079428F4360FE71E5D
:1011D000F81E491F511D660F771F881F991F06941F
:1011E000A1F70590079428F4E70EF81E491F561F33
:1011F000C11D770F881F991F661F0694A1F70590E0
:10120000079428F4F80E491F561FC71FD11D880FD9
:10121000991F661F771F0694A1F70590079420F485
:10122000490F561FC71FD81F990F661F771F881FAA
:101230000694A9F784911095177041F0D695C7953B
:1012400057954795F794E7941A95C1F7E0E7F0E0D2
:1012500068941590159135916591959105907FE26F
:101260007395E118F10A430B560BC90BD009C0F76F
:10127000E10CF11E431F561FC91FD01D7EF47033B1
:1012800011F48A95E6CFE894015030F0080F0AF483
:101290000027021708F4202F2395022F7A3328F015
:1012A00079E37D932A95E9F710C07D932A9589F615
:1012B000069497956795379517951794E118F10A55
:1012C000430B560BC90BD00998F023957E9173956B
:1012D0007A3308F070E37C932013B8F77E91706145
:1012E0007D9330F0839571E37D9370E32A95E1F768
:1012F0001124EF90FF900F911F91CF91DF919927CB
:1013000087FD90950895FC01059061507040011093
:10131000D8F7809590958E0F9F1F0895FC0161501E
:10132000704001900110D8F7809590958E0F9F1F07
:1013300008950F931F93CF93DF93FB01238121FD2A
:1013400003C08FEF9FEF2CC022FF16C0468157814C
:10135000248135814217530744F4A081B1819D0156
:101360002F5F3F4F318320838C93268137812F5FFE
:101370003F4F3783268314C08B01EC01FB010084AF
:10138000F185E02D0995892BE1F6D80116968D910E
:101390009C911797019617969C938E931697CE0162
:1013A000DF91CF911F910F910895A0E0B0E0EBED98
:1013B000F9E00C946307AE014B5F5F4FFA01619156
:1013C0007191AF0180918C0190918D010E94D603A3
:1013D000E2E00C947F070F931F93CF93DF93E0918C
:1013E0008C01F0918D01238121FF1BC08C01D0E085
:1013F000C0E0F80181918F0160918C0170918D01A5
:10140000DB011896ED91FC911997882331F009952D
:10141000892B79F3DFEFCFEFECCF8AE00995892BA9
:1014200019F08FEF9FEF02C08D2F9C2FDF91CF918E
:101430001F910F910895FA01AA27283051F1203108
:1014400081F1E8946F936E7F6E5F7F4F8F4F9F4F58
:10145000AF4FB1E03ED0B4E03CD0670F781F891F9A
:101460009A1FA11D680F791F8A1F911DA11D6A0F68
:10147000711D811D911DA11D20D009F468943F911B
:101480002AE0269F11243019305D3193DEF6CF011A
:101490000895462F4770405D4193B3E00FD0C9F7E0
:1014A000F6CF462F4F70405D4A3318F0495D31FD4D
:1014B0004052419302D0A9F7EACFB4E0A6959795A0
:1014C000879577956795BA95C9F700976105710576
:1014D00008959B01AC010A2E0694579547953795C0
:1014E0002795BA95C9F7620F731F841F951FA01D1A
:1014F0000895A6E1B0E044E050E00C948E0A242F59
:101500000E949D0A252F0E949D0A0C94870A0E9422
:101510009C0A272F0C949D0ADC01CB01FC01F99950
:10152000FECF06C0F2BDE1BDF89A319600B40D922F
:1015300041505040B8F70895262FF999FECF1FBAB1
:1015400092BD81BD20BD0FB6F894FA9AF99A0FBEEC
:0815500001960895F894FFCF05
:1015580000009001200000000001000000000000D1
:10156800890200000000000200000000790200006B
:1015780000004D4158207361766564004D494E2046
:1015880073617665640043757272656E7420252EEA
:1015980031662C206D617820697320252E31662CE8
:1015A800206D696E20697320252E31660A004D6111
:1015B8007820616E64204D696E2044455354524F23
:1015C800594544004D617820616E64204D696E2054
:0615D8005341564544009A
:00000001FF
