:100000000C9434000C9451000C9451000C94510049
:100010000C9451000C9451000C9451000C9451001C
:100020000C9451000C9451000C9451000C946C01F0
:100030000C9451000C9451000C9451000C945100FC
:100040000C9451000C9451000C94E0020C9451005B
:100050000C9451000C9451000C9451000C945100DC
:100060000C9451000C94510011241FBECFEFD8E026
:10007000DEBFCDBF11E0A0E0B1E0E2E7FEE002C0EC
:1000800005900D92A033B107D9F721E0A0E3B1E0CC
:1000900001C01D92A335B207E1F70E940B020C9438
:1000A00037070C940000CF93C82F8EE40E944103C1
:1000B000809130018C2B0E9472030E946903CF91C2
:1000C0000895CF93C82F84600E94530085E08A95DD
:1000D000F1F700008C2F8B7F0E94530087EC90E09B
:1000E0000197F1F700C00000CF910895CF93C82F7A
:1000F000CD7F8C2F0E9453008C2F0E946100CF91E6
:100100000895CF93DF93D82FC62FC460807F8C2BA8
:100110000E9476008D2F8295807F8C2B0E94760026
:10012000DF91CF91089561E00E94810008950E94BF
:10013000930080E090E0089560E081E00E948100FB
:100140002FEF86E791E0215080409040E1F700C01A
:1001500000000895CF93DF93CDB7DEB728970FB691
:10016000F894DEBF0FBECDBF98E0E3E1F1E0DE0121
:10017000119601900D929A95E1F7909131016917CE
:1001800010F06FEF690FE62FF0E0EE0FFF1FEC0F9E
:10019000FD1F9181890F60E080680E948100289690
:1001A0000FB6F894DEBF0FBECDBFDF91CF9108959B
:1001B000809133018B7F8093330160E088600E94DF
:1001C0008100089580913301982F946090933301BA
:1001D00060E08C600E948100089584E091E090933B
:1001E000500180934F0180913001886080933001ED
:1001F00084E0809331012FEF80E792E0215080402E
:100200009040E1F700C000008EE40E94410384E0CA
:100210000E9472038FE891E00197F1F700C000009F
:1002200080E30E9476008FE496E40197F1F700C026
:10023000000080E30E94760087E592E00197F1F7E5
:1002400000C0000080E30E94760087E592E00197FD
:10025000F1F700C0000080E20E94760087E592E09E
:100260000197F1F700C0000060E088E20E94810081
:10027000109233010E94D8000E94E20082E0809335
:10028000340160E086E00E9481008091330160E0EB
:1002900088600E94810088E08093320160E088E1FC
:1002A0000E9481000E949C000895E0E8F0E08081B7
:1002B0008260808389EF90E090938900809388002A
:1002C000E1E8F0E0808183608083EFE6F0E0808108
:1002D00082608083789408951F920F920FB60F92D8
:1002E00011242F933F934F935F936F937F938F933B
:1002F0009F93AF93BF93EF93FF9380913F019091B2
:10030000400101969093400180933F0180913F010D
:1003100090914001883E9340C1F40E94D0038370C5
:100320009078992324F401978C6F9F6F0196909396
:100330003C0180933B011092400110923F0181E00B
:1003400090E09093380180933701FF91EF91BF9136
:10035000AF919F918F917F916F915F914F913F915D
:100360002F910F900FBE0F901F901895ECE7F0E0C3
:100370009081907F90839081892B8083EAE7F0E0E1
:10038000808180648083808186FDFDCF80917800AC
:1003900090917900089510924C0110924B010E94A7
:1003A000B601880F991F880F991F90933E01809383
:1003B0003D01893E934030F081E090E090934C0104
:1003C00080934B0161E080E00E94AA0080913E0191
:1003D0008F9380913D018F938BE191E09F938F9359
:1003E0000E94E0030F900F900F900F9080914B01AF
:1003F00090914C0108951092C50083E38093C4004E
:10040000E1ECF0E088E1808386E08093C2008081A7
:100410008068808308950E943B030E94ED000E9443
:1004200055010E94FB0180EF87B918B880E48093E2
:100430007C0087E880937A0080913B0190913C0199
:100440000E94D50315B88091390190913A010E941C
:10045000870690E09093360180933501019711F45F
:1004600080E285B9C0E0D0E003E211E00F2EF6E2B1
:10047000EF2EF1E0FF2EF02DCC24C394D12C60E0C0
:1004800080E00E94AA0080913C018F9380913B0103
:100490008F931F930F930E94E003809137019091F7
:1004A00038010F900F900F900F90019741F78091B6
:1004B0003B0190913C010E94CB0162E080E00E94F0
:1004C000AA0080914C018F9380914B018F93FF92F2
:1004D000EF920E94E0030F900F900F900F90809189
:1004E0004B0190914C01019721F0DD230CF04FC09E
:1004F0005AC0C530D10504F5CE01880F991F9C0163
:100500002F5B3E4F590180913B0190913C01F901D5
:100510009183808363E08C2F0E94AA00F501818182
:100520008F9380818F931F930F930E94E0032196F6
:100530000F900F900F900F90C430D105A1F5D0927D
:100540003601C092350161E08091390190913A0104
:100550000E948F060F2EF1E48F2EF1E09F2EF02DDA
:10056000A12CB12CF4016081F2E08F0E911C8091DE
:1005700012019501280F311DC9010E948F063AE032
:10058000A30EB11C82E3A816B10461F70CC0CC0F16
:10059000DD1FCF5BDE4F1982188210923601109258
:1005A0003501CFEFDFEF109238011092370167CF9E
:1005B000E0ECF0E0908195FFFDCF8093C6000895B8
:1005C0001F920F920FB60F9211240F931F932F9328
:1005D0003F934F935F936F937F938F939F93AF93CB
:1005E000BF93EF93FF93CF93DF931F92CDB7DEB707
:1005F0008091C60089838981813021F48091350101
:100600000E94D8028981823001F580913501909154
:100610003601019791F400E010E0809112019801F9
:10062000280F311DC9010E9487060E94D802065F6B
:100630001F4F0233110589F708C005E010E08FEF66
:100640000E94D80201501109D1F70F90DF91CF918C
:10065000FF91EF91BF91AF919F918F917F916F919A
:100660005F914F913F912F911F910F910F900FBE6E
:100670000F901F9018951092B90088E48093B800ED
:100680000895CF93DF93ECEBF0E024EAA9EBB0E020
:10069000CBEBD0E034E844E9208390819923ECF758
:1006A0009C91987F983011F09031B1F78883308316
:1006B00090819923ECF79C91987F903211F09835B6
:1006C00029F44083908194FDFDCFE6CFDF91CF9157
:1006D000089584E98093BC00ECEBF0E0808184FD18
:1006E000FDCF08958093BB0084E88093BC00ECEBC1
:1006F000F0E080818823ECF79091B900987F81E049
:10070000983209F480E008958F929F92AF92BF9241
:10071000CF92DF92EF92FF92CF93DF93EC0168814B
:1007200079818A819B81611571058105910521F48B
:1007300064E279ED8BE597E02DE133EF41E050E0A5
:100740000E949D0649015A019B01AC01A7EAB1E450
:100750000E94BC066B017C01ACEEB4EFA5019401D4
:100760000E94CA06DC01CB018C0D9D1DAE1DBF1D74
:10077000B7FF03C00197A109B04888839983AA8372
:10078000BB839F77DF91CF91FF90EF90DF90CF9069
:10079000BF90AF909F908F9008950E94840308951A
:1007A00080E091E00E9484030895A0E0B0E080938F
:1007B000000190930101A0930201B09303010895F9
:1007C000A0E0B0E0E6EEF3E00C94DF06AE014B5F94
:1007D0005F4FFA0161917191AF0180914F0190914A
:1007E00050010E94F603E2E00C94FB06ABE0B0E09F
:1007F000ECEFF3E00C94CF066C017B018A01FC0165
:1008000017821682838181FFCCC1CE0101963C0103
:10081000F6019381F70193FD859193FF81917F010B
:10082000882309F4BAC1853239F493FD859193FF89
:1008300081917F01853229F4B60190E00E94ED0597
:10084000E7CF912C212C312CFFE1F315D8F08B321E
:1008500079F038F4803279F08332A1F4232D2061CD
:100860001DC08D3261F0803369F4232D216016C0E4
:10087000832D8260382EE32DE4603E2E2AC0F32DB6
:10088000F8601DC037FC2DC020ED280F2A3040F045
:100890008E32B9F436FC81C1232D2064322E19C06A
:1008A00036FE06C08AE0989E200D1124922E11C0BB
:1008B000EAE02E9E200D1124222EF32DF0623F2E11
:1008C00008C08C3621F4832D8068382E02C088360B
:1008D00041F4F70193FD859193FF81917F0181118F
:1008E000B3CF982F9F7D9554933028F40C5F1F4F02
:1008F0009FE399830DC0833631F0833771F08335E0
:1009000009F059C021C0F801808189830E5F1F4F13
:1009100088248394912C530113C02801F2E04F0ED8
:10092000511CF801A080B18036FE03C0692D70E033
:1009300002C06FEF7FEFC5010E94E2054C0182010A
:10094000F32DFF773F2E16C0280122E0420E511CE6
:10095000F801A080B18036FE03C0692D70E002C0AE
:100960006FEF7FEFC5010E94D7054C01F32DF068B2
:100970003F2E820133FC1BC0822D90E08816990621
:10098000B0F4B60180E290E00E94ED052A94F4CF25
:10099000F50137FC859137FE81915F01B60190E04A
:1009A0000E94ED0521102A9421E0821A91088114F9
:1009B000910471F7E8C0843611F0893641F5F801E9
:1009C00037FE07C060817181828193810C5F1F4F68
:1009D00008C060817181072E000C880B990B0E5F97
:1009E0001F4FF32DFF763F2E97FF09C090958095FE
:1009F000709561957F4F8F4F9F4FF0683F2E2AE093
:100A000030E0A3010E942906882E861845C085374C
:100A100031F4232D2F7EB22E2AE030E025C0932D15
:100A2000997FB92E8F36C1F018F4883579F0B5C0AA
:100A3000803719F0883721F0B0C0E92FE061BE2E71
:100A4000B4FE0DC0FB2DF460BF2E09C034FE0AC0F9
:100A5000292F2660B22E06C028E030E005C020E134
:100A600030E002C020E132E0F801B7FE07C060814B
:100A70007181828193810C5F1F4F06C060817181FB
:100A800080E090E00E5F1F4FA3010E942906882E90
:100A90008618FB2DFF773F2E36FE0DC0232D2E7FAF
:100AA000A22E891458F434FE0BC032FC09C0832DE9
:100AB0008E7EA82E05C0B82CA32C03C0B82C01C074
:100AC000B92CA4FE0FC0FE01E80DF11D808180331A
:100AD00021F49A2D997EA92E09C0A2FE06C0B394D6
:100AE000B39404C08A2D867809F0B394A3FC11C096
:100AF000A0FE06C0B21488F4280C922C9B180EC0DD
:100B0000B21460F4B60180E290E00E94ED05B39467
:100B1000F7CFB21418F42B1802C0982C212CA4FE85
:100B200010C0B60180E390E00E94ED05A2FE17C060
:100B3000A1FC03C088E790E002C088E590E0B60120
:100B40000CC08A2D867859F0A1FE02C08BE201C04C
:100B500080E2A7FC8DE2B60190E00E94ED058914C9
:100B600038F4B60180E390E00E94ED059A94F7CF47
:100B70008A94F301E80DF11D8081B60190E00E9496
:100B8000ED058110F5CF222009F442CEB60180E2B6
:100B900090E00E94ED052A94F6CFF60186819781B8
:100BA00002C08FEF9FEF2B96E2E10C94EB06FC0165
:100BB0000590615070400110D8F7809590958E0F88
:100BC0009F1F0895FC016150704001900110D8F7FB
:100BD000809590958E0F9F1F08950F931F93CF932D
:100BE000DF93FB01238121FD03C08FEF9FEF2CC01A
:100BF00022FF16C046815781248135814217530751
:100C000044F4A081B1819D012F5F3F4F3183208348
:100C10008C93268137812F5F3F4F3783268314C003
:100C20008B01EC01FB010084F185E02D0995892BF6
:100C3000E1F6D80116968D919C911797019617961B
:100C40009C938E931697CE01DF91CF911F910F91B8
:100C50000895FA01AA27283051F1203181F1E89452
:100C60006F936E7F6E5F7F4F8F4F9F4FAF4FB1E09F
:100C70003ED0B4E03CD0670F781F891F9A1FA11D9A
:100C8000680F791F8A1F911DA11D6A0F711D811D9B
:100C9000911DA11D20D009F468943F912AE0269F60
:100CA00011243019305D3193DEF6CF010895462FBF
:100CB0004770405D4193B3E00FD0C9F7F6CF462FA0
:100CC0004F70405D4A3318F0495D31FD4052419309
:100CD00002D0A9F7EACFB4E0A695979587957795C6
:100CE0006795BA95C9F700976105710508959B014D
:100CF000AC010A2E06945795479537952795BA95D6
:100D0000C9F7620F731F841F951FA01D0895F999DD
:100D1000FECF92BD81BDF89A992780B50895262F00
:100D2000F999FECF1FBA92BD81BD20BD0FB6F894D0
:100D3000FA9AF99A0FBE01960895052E97FB1EF4B4
:100D400000940E94B40657FD07D00E94060707FCD6
:100D500003D04EF40C94B4065095409530952195EF
:100D60003F4F4F4F5F4F08959095809570956195D7
:100D70007F4F8F4F9F4F08950E942807A59F900D8A
:100D8000B49F900DA49F800D911D11240895B7FF6D
:100D90000C94BC060E94BC06821B930B08952F92F4
:100DA0003F924F925F926F927F928F929F92AF92FB
:100DB000BF92CF92DF92EF92FF920F931F93CF9348
:100DC000DF93CDB7DEB7CA1BDB0B0FB6F894DEBFDF
:100DD0000FBECDBF09942A88398848885F846E8405
:100DE0007D848C849B84AA84B984C884DF80EE804F
:100DF000FD800C811B81AA81B981CE0FD11D0FB658
:100E0000F894DEBF0FBECDBFED010895A1E21A2E0A
:100E1000AA1BBB1BFD010DC0AA1FBB1FEE1FFF1F9E
:100E2000A217B307E407F50720F0A21BB30BE40BEE
:100E3000F50B661F771F881F991F1A9469F7609535
:100E40007095809590959B01AC01BD01CF010895EF
:100E5000A29FB001B39FC001A39F700D811D1124FB
:100E6000911DB29F700D811D1124911D0895F8945C
:020E7000FFCFB2
:100E720001000000000000020000000097000000D6
:100E82000000140000400014005400566F6C74619E
:100E9200676520256400526573756C7420256400B3
:00000001FF
